:020000040800F2
:100000000010002075040008C1040008C1040008A5
:1000100000000000000000000000000000000000E0
:10002000000000000000000000000000C104000803
:100030000000000000000000C1040008C104000826
:10004000C1040008C1040008C1040008C10400087C
:10005000C1040008C1040008C1040008C10400086C
:10006000C1040008C1040008C1040008C10400085C
:10007000C1040008C1040008C1040008C10400084C
:10008000C1040008C104000800000000C104000809
:10009000C1040008C1040008C1040008C10400082C
:1000A000C1040008C1040008C1040008C10400081C
:1000B000C104000800000000C104000800000000A6
:1000C0005FF808F180B582B000AF78600A00FB1CD1
:1000D0001A70FB1C1B78002B06D0094B084A51698B
:1000E0007A680A435A6106E0054B054A5269796805
:1000F000C9430A405A61C046BD4602B080BDC046F1
:100100000010024080B584B000AF78600A00FB1C8C
:100110001A7080239B0201211800FFF7D3FF0823E8
:10012000FB187A681A600823FB1801221A71082349
:10013000FB1800229A710823FB1803225A71082326
:10014000FB180022DA710823FA189023DB0511004E
:10015000180000F06DFAC046BD4604B080BDC04630
:1001600080B582B000AF78600A00FB1C1A70FB1CDF
:100170001B78002B04D19023DB057A689A6104E098
:100180009023DB057A6892B21A85C046BD4602B05C
:1001900080BDC04680B582B000AF786002E07B6869
:1001A000013B7B607B68002BF9D1C046BD4602B0A5
:1001B00080BDC04680B500AF104B1B680021180001
:1001C000FFF7A0FF0E4B1B6800211800FFF79AFFF6
:1001D0000C4B1B6800211800FFF794FF0A4B1B68AB
:1001E00000211800FFF78EFF084B1B680021180044
:1001F000FFF788FFC046BD4680BDC0461000002006
:100200000000002004000020080000200C00002056
:1002100080B500AF0F4B1B6801211800FFF7A0FF4E
:100220000D4B1B6800211800FFF79AFF0B4B1B6852
:1002300000211800FFF794FF094B1B6801211800EB
:10024000FFF78EFF074B1B681800FFF7A3FFC046A0
:10025000BD4680BD000000200400002008000020F2
:100260000C0000201400002080B500AF0F4B1B686D
:1002700001211800FFF774FF0D4B1B6800211800C7
:10028000FFF76EFF0B4B1B6801211800FFF768FF9B
:10029000094B1B6800211800FFF762FF074B1B6822
:1002A0001800FFF777FFC046BD4680BD0000002064
:1002B00004000020080000200C0000201400002092
:1002C00080B500AF0F4B1B6800211800FFF748FFF7
:1002D0000D4B1B6801211800FFF742FF0B4B1B68F9
:1002E00001211800FFF73CFF094B1B680021180093
:1002F000FFF736FF074B1B681800FFF74BFFC046A0
:10030000BD4680BD00000020040000200800002041
:100310000C0000201400002080B500AF0F4B1B68BC
:1003200000211800FFF71CFF0D4B1B68012118006E
:10033000FFF716FF0B4B1B6800211800FFF710FF9B
:10034000094B1B6801211800FFF70AFF074B1B68C8
:100350001800FFF71FFFC046BD4680BD000000200B
:1003600004000020080000200C00002014000020E1
:1003700080B500AF0D4B1B6801211800FFF7F0FEA0
:100380000B4B1B6801211800FFF7EAFE094B1B68A5
:1003900001211800FFF7E4FE074B1B68012118003C
:1003A000FFF7DEFEC046BD4680BDC046000000200F
:1003B00004000020080000200C00002080B582B05E
:1003C00000AF00237B600AE0FFF722FFFFF74CFF3E
:1003D000FFF776FFFFF7A0FF7B6801337B607B6848
:1003E000322BF1DDFFF7C4FF1C4B1B680021180006
:1003F000FFF7B6FE1A4B1B681800FFF7CBFE174B32
:100400001B6801211800FFF7ABFE00233B600AE0E8
:10041000FFF756FFFFF728FFFFF7FAFEFFF77CFF15
:100420003B6801333B603B68322BF1DDFFF7A0FFF7
:100430000A4B1B6800211800FFF792FE084B1B684F
:100440001800FFF7A7FE054B1B6801211800FFF7F6
:1004500087FEC046BD4602B080BDC04610000020E9
:100460001800002080B500AFFFF7A4FEFFF7A6FF3D
:10047000FCE7C0460C488546002103E00B4B5B5867
:10048000435004310A480B4B42189A42F6D30A4AA9
:1004900002E0002313600432084B9A42F9D300F0C3
:1004A00011F8FFF7DFFFFEE70010002060070008EB
:1004B000000000201C0000201C0000201C00002068
:1004C000FEE7000080B500AF1B4B1B4A12680121FC
:1004D0000A431A60184B184A526818490A405A6071
:1004E000154B154A126816490A401A60124B124AF7
:1004F000126814490A401A600F4B0F4A5268124999
:100500000A405A600C4B0C4AD26A0F218A43DA62C5
:10051000094B094A126B0D490A401A63064B064AF9
:10052000526B01218A435A63034B00229A6000F008
:100530000FF8C046BD4680BD001002400CB8FF0851
:10054000FFFFF6FEFFFFFBFFFFFFC0FFACFEFFFF5C
:1005500080B582B000AF00237B6000233B60314B4D
:10056000304A1268802149020A431A602D4B1A68EA
:1005700080239B0213403B607B6801337B603B68B8
:10058000002B04D17A68A023DB019A42EED1254BDF
:100590001A6880239B02134002D001233B6001E0D4
:1005A00000233B603B68012B38D11F4B11221A609E
:1005B0001C4B1C4A52685A601A4B1A4A52685A60BD
:1005C000184B184A526819490A405A60154B154A87
:1005D0005268882149030A435A60124B114A126833
:1005E000802149040A431A60C0460E4B1A688023D2
:1005F0009B041340F9D00B4B0A4A526803218A43EB
:100600005A60084B074A526802210A435A60C046A2
:10061000044B5B680C221340082BF9D1C046BD4641
:1006200002B080BD0010024000200240FFFFC0FF6A
:1006300080B586B000AF7860396000237B6100230D
:100640003B610023FB6000237B6181E001227B6929
:100650009A4013003B613B681B683A691340FB609A
:10066000FA683B699A4270D13B681B79012B03D031
:100670003B681B79022B38D17B689B687A695200F2
:10068000032191400A00D2431A407B689A607B683C
:100690009A683B685B7919007B695B0099400B00A5
:1006A0001A437B689A607B689B889BB27A691204C4
:1006B000120C012191400A0092B2D24392B213402F
:1006C0009AB27B689A807B689B889BB29AB23B689F
:1006D0009B7919007B691B041B0C99400B009BB292
:1006E00013439BB29AB27B689A807B681B687A69D5
:1006F0005200032191400A00D2431A407B681A60DD
:100700007B681A683B681B7919007B695B0099401C
:100710000B001A437B681A607B68DB687A691204F5
:10072000120C5200032191400A00D2431A407B6808
:10073000DA607B68DA683B68DB7919007B695B000B
:1007400099400B001A437B68DA607B6901337B6157
:100750007B690F2B00D879E7C046BD4606B080BD47
:10076000010000000200000004000000080000007A
:0C077000100000001027000040420F00A5
:0400000508000000EF
:00000001FF
